:020000040800F2
:10000000C008002035020008112900083524000826
:10001000B9270008B91A0008813200080000000062
:10002000000000000000000000000000AD2E0008ED
:10003000C11D0008000000007D2D0008C12F000830
:100040004F0200084F0200084F0200084F0200084C
:100050004F0200084F0200084F0200084F0200083C
:100060004F0200084F0200084F0200084F0200082C
:100070004F0200084F0200084F0200084F0200081C
:100080004F0200084F0200084F0200084F0200080C
:100090004F0200084F0200084F0200084F020008FC
:1000A0004F0200084F0200084F0200084F020008EC
:1000B0004F0200084F0200084F0200084F020008DC
:1000C0004F0200084F0200084F0200084F020008CC
:1000D0004F02000825300008713000084F02000868
:1000E0004F0200084F0200084F02000800F002F81B
:1000F00000F090F80AA090E8000C82448344AAF132
:100100000107DA4501D100F085F8AFF2090EBAE82F
:100110000F0013F0010F18BFFB1A43F0010318473B
:100120003C4700005C470000103A24BF78C878C103
:10013000FAD8520724BF30C830C144BF04680C60ED
:10014000704700000023002400250026103A28BF35
:1001500078C1FBD8520728BF30C148BF0B60704739
:100160006E2900F07582702900F0BF83662903F0C4
:100170008986652903F08686672903F083866129CD
:10018000AFF3008003681B0A28BF41F08001692992
:1001900000F0A080642900F09D80752900F09A800D
:1001A0006F2900F04C83782900F08B83E92900F057
:1001B000E782E42900F0E482F52900F0E182EF29EA
:1001C00000F04983F82900F08A830368DB0928BF1F
:1001D00041F08001632900F0F185732900F0F68574
:1001E000E32900F00186F32900F00686002070471D
:1001F0001FB500F053FE04000020002103F03EF97B
:10020000401C60600020002103F022F9E0601FBD67
:1002100010B510BD00F014FE1146FFF7E9FF03F022
:10022000C9F800F0F1FE03B4FFF7F2FF03BC00F0E1
:1002300039FF00000948804709480047FEE7FEE70C
:10024000FEE7FEE7FEE7FEE7FEE7FEE7FEE7FEE786
:1002500004480549054A064B70470000C52F0008B1
:10026000ED000008C0020020C0080020C0040020EB
:10027000C00400207CB51D4616460C00009001D03D
:100280002044401E074B7B442A4669460190304675
:1002900000F0F7F905461CB10020694600F004FAA9
:1002A00028467CBD290400000FB41CB5084B06AAE3
:1002B0007B4469460090059800F0E3F9044600206D
:1002C000694600F0F1F920461CBC5DF814FB000003
:1002D000F50300002DE9F041064600241068752959
:1002E000314616A510D000F01FF9002802DA40426E
:1002F00013A507E031688A0701D512A502E0490776
:1003000004D511A5012401E000F017F900210A220B
:1003100006F1240709E0B0FBF2FCB0FBF2F302FBAC
:100320001C00303078541846491C0028F3D123466D
:100330002A463046BDE8F04100F031B90000000027
:100340002D0000002B000000200000002DE9F05FD0
:10035000894604464FF0000ADFF874B1FB44C0F848
:1003600020A02046E1688847002874D0252806D0C0
:10037000D4E901219047206A401C2062F1E7002661
:100380005F462046E16888472028054607DB312D77
:1003900005D2781910F8200C08B10643F1E7B00730
:1003A00001D526F00406C4F81CA00027C4F818A044
:1003B0002A2D09D0284602F0F5FF38B304EB870850
:1003C000303DC8F8185019E059F8041B204604EBDA
:1003D00087029161E1688847012F054618D1E069DD
:1003E000002820DA26F020061DE0D8F8180000EBDF
:1003F000800005EB40003038C8F818002046E1685E
:100400008847054602F0CEFF0028EED1012F0AD022
:100410002E2D08D12046E16888477F1C0546022F13
:1004200046F02006C4DBA069002803DA404246F00B
:100430000106A061F00701D026F010066C2D0BD04C
:10044000682D09D04C2D39D06A2D35D0742D35D07A
:100450007A2D33D016E038E0E1682F4620468847F1
:10046000B842054609D16C2F26D04FF48060E16870
:10047000064320468847054604E06C2F1AD04FF407
:10048000807006430DB3A5F14100192802D820352C
:1004900046F400664A462946204626604E46FFF747
:1004A0005FFE80B101280BD0F61D26F0070000F199
:1004B000080956E74020E4E78020D8E70020D6E787
:1004C00006F104094DE7284652E7206ABDE8F09F8F
:1004D0002644000070477047704770B50446856930
:1004E0000068C10601D5302600E02026C00707D0ED
:1004F00070BDD4E9012130469047206A401C20623B
:100500006D1EF6D570BD70B5044685690078C007CC
:1005100007D170BDD4E9012120209047206A401CFA
:1005200020626D1EF6D570BD09684A0501D540B23E
:100530007047C905FCD500B2704709684A0501D566
:10054000C0B27047C905FCD580B2704770B50C4683
:100550000546012A05D02878800600D5EA690023DF
:1005600002E0012305E05B1C934202D2E05C00281C
:10057000F9D1A869E618C01AA861286A1844286247
:100580002846FFF7AAFF04E0D5E9012114F8010B82
:100590009047B442F8D32846FFF7B5FF70BD2DE968
:1005A000F0470D4699469246044600F1240801683A
:1005B000880604D5E06921F01001216000E00120E7
:1005C000A84201DD471B00E00027A1697A1902EB70
:1005D0000900081AA0612078C00602D42046FFF75F
:1005E0007CFF002608E0D4E901211AF806009047B4
:1005F000206A401C761C20624E45F4DB2078C00641
:100600000AD52046FFF769FF06E0D4E90121302032
:100610009047206A401C2062381EA7F10107F4DCD5
:1006200007E0D4E9012118F805009047206A401C32
:100630002062281EA5F10105F3DC2046FFF763FFC9
:100640002078000602D50220BDE8F0870120FBE7F4
:1006500011680268006A530501D508700AE0D305E5
:1006600001D5088006E0130603D5C217C1E90002D0
:1006700000E008600120704701694A1C02610878A7
:10068000704700B58FB0CDE90131002105910549D2
:100690007944CDE9031011466846FFF757FE0FB0C5
:1006A00000BD0000E5FFFFFF0A6802F8010B0A60C9
:1006B0007047D1E900239A4202D2531C0B6010709C
:1006C000704700002DE9FF5F15468A460446DFF8B3
:1006D000AC80F8440027D8E900103E46CDE9001070
:1006E00010E03AF816106A4602A800F089FB411C97
:1006F00007D02178890603D5E269391891420DD8CF
:100700000744761C2078800602D5E069B84205DDF2
:10071000AE42E6DB3AF816000028E2D1A069C01B21
:10072000A0612046FFF7D9FED8E90010CDE90010FE
:10073000002017E03AF818106A4602A800F060FBA3
:10074000B0F1FF3F81460BD000250DF1080B05E00D
:10075000D4E901211BF8050090476D1C4D45F7D3E6
:1007600008F10100B0428046E4DB206A3844206290
:100770002046FFF7C8FEBDE8FF9F0000C240000012
:100780002DE9F0418046D21D22F007020025D2E972
:100790000002F52915A614D0011E72F1000106DA37
:1007A0000023D0EB030063EB020211A608E0D8F8A7
:1007B00000108B0701D50FA602E0490701D50EA650
:1007C00001251146002408F1240704E000F098F800
:1007D00030323A55641C50EA0102F7D12B463246BA
:1007E00021464046BDE8F041FFF7D9BE00000000B9
:1007F0002D0000002B0000002000000030B400217C
:1008000000F1240408E002F00705D208303542EA7E
:100810004372DB086554491C52EA0305F3D10468AE
:10082000002310A2250707D5A40600D421B1C4696E
:1008300001230DA2641EC46130BCFFF7B0BE10B529
:10084000044621461068FFF778FE02462046BDE8C0
:1008500010400023D2E7D21D22F00701D1E9002386
:10086000CCE700000000000030000000F0B40D46AE
:100870000188090502D5214C7C4402E01F4C7C44D0
:100880000E34002100F1240608E002F00F071209DF
:10089000E75D42EA03721B097754491C52EA0307D9
:1008A000F3D102780023120704D5702D06D009B1C8
:1008B000022311342246F0BCFFF771BE012310342D
:1008C000F8E770B504460D4621461068FFF735FE7F
:1008D000024629462046BDE870400023C6E7D21DE7
:1008E00022F00703D3E90023C0E70368126843F04E
:1008F000200303600823C3610023B7E7243F0000FF
:1009000030B5B0F10A024FEA900E71F100034EEAE1
:10091000817EB0EB0E0061EB91014FEA101E4EEAB2
:10092000017E10EB0E0041EB11114FEA102E4EEA42
:10093000016E10EB0E0041EB11214FEA104E4EEA12
:10094000014E10EB0E0041EB1141401841F1000146
:100950004FEAD00040EA41704FEAD10110EB800528
:100960004FEA810444EA907444EB01046D1944EBAE
:100970000404521BA3414FF0000348BF0A3200D5C4
:1009800030BD401C41F1000130BD70472DE9FF4FE3
:100990000C461E464FF0FF378BB0D2E90001DDF860
:1009A00060800A908A46C1F30A5505B93D46002188
:1009B00008464FF00000BAF1000F00F4400005DADD
:1009C00000EB80004FF4400101EA50004FEA9059DB
:1009D000B9F1010F00DDB9460A9850EA4A000ED07D
:1009E00044F61050A5F2FF3545432F14B8F1000F1F
:1009F0001ED07542291E1EDDC9F100021CE0B8F1AF
:100A0000010F4FF0000001D0302103E0F24305E078
:100A10002154401CB042FBDB30460022002121540F
:100A20000B99C1F80880C1E900200FB0BDE8F08F34
:100A3000BD1B6D1CDEE74A4600DA694206A800F0DD
:100A400071FA06AB93E8070003AB83E80700504652
:100A50000A9900F02EFB8DE80700A0F500501F3822
:100A600000900398002D0ADD42F21F014A46084417
:100A7000002303A90390684600F097FD09E0A0F564
:100A800000504A461F38002303A90390684600F02F
:100A9000A1FD8DE807000004000C03D04FF0FF30EB
:100AA000410800E01046B8F1000F03D00022009288
:100AB00015461EE0751E05D4FFF722FF3032625541
:100AC0006D1EF9D5B3460122084302D000227F1CD7
:100AD00004E02078302801D100227F1E002A0997E7
:100AE00084D01DE0112D07DAFFF70AFF303262557E
:100AF0006D1C50EA0102F5D1084302D00098C8B13C
:100B00000EE00021681E05E0235C625C6354225401
:100B1000401E491C8142F7DBAB46A81B401E0990D2
:100B2000002004F80B000B98099AC0F80880C0E96F
:100B3000002B7AE711264FF0000857E72DE9F04F18
:100B400088460446D21D22F0070191B0D1E9000188
:100B5000CDE90A0102F012FC02460B98C00F01D049
:100B60002D2007E02068810701D52B2002E02021FD
:100B700001EAC000032A099001D0072A05DB0346D9
:100B80004146204600F08EF90BE12078800601D521
:100B9000E06900E00620B8F1650F814606D0B8F1A3
:100BA000660F18D0B8F1670F70D131E00020B9F1AD
:100BB000110F009001DB112301E009F101030AAAE2
:100BC00001A90CA8FFF7E2FEDDE90C70002609F18F
:100BD0000105834647E001204B4600904FF0004757
:100BE0000AAA01A90CA8FFF7D1FEDDE90DB00C9906
:100BF0005D46002610B909F101000D18B9EB05009A
:100C000003D4C0F1FF3609F10105A5EB09002BE083
:100C1000B9F1010F01DA4FF001090020B9F1110F0C
:100C20000090484601DD112300E003460AAA01A90D
:100C30000CA8FFF7ABFEDDE90C704D46002683469D
:100C4000207800070AD4AB4500DA5D4601A8012DE3
:100C500004DD411911F8011C302907D04F4502DA93
:100C600017F1040F04DA012082460FE06D1EEEE753
:100C7000002F02DCED1B3E4403E0781CA84200DD9F
:100C80007D1CB81B00F1010A4FF0004720780007D7
:100C900003D4AA4501DB4FF0FF3A0021B7F1004F22
:100CA0000DF143088DF8431024D002202B23002F90
:100CB00001DA7F422D230A21021EA0F1010000DC8F
:100CC0005FB197FBF1FC97FBF1F201FB1C7C17462F
:100CD0000CF1300C08F801CDEEE7A8F1010003702B
:100CE0002188090501D5452100E06521A0F1010811
:100CF00000F8011C09980FA9A1EB0807FF1D00B11E
:100D00000120411901EBEA70A1693844081A401E1C
:100D1000A0612078C00602D42046FFF7DEFB0998C8
:100D200028B1D4E901219047206A401C2062207834
:100D3000C00622D52046FFF7D0FB1EE0002E04DBC4
:100D4000B34502DD01A8805D00E03020D4E9012137
:100D50009047206A401C2062761CAAF101005FEADD
:100D6000000A0AD100F09AF8C0680168405CD4E932
:100D700001219047206A401C2062281EA5F1010530
:100D8000DCDC07E0D4E9012118F8010B9047206A68
:100D9000401C2062381EA7F10107F3DC2046FFF754
:100DA000B2FB032011B041E610B5436913B1AFF3B4
:100DB000008001E0FFF7CAFB012010BD127800F1AE
:100DC00024010A7000224A700122EDE711684FF0F9
:100DD000FF32E9E710B5436913B1AFF3008001E0DA
:100DE000FFF770FC012010BD128800F124018284FD
:100DF0000022C2840122EDE711684FF0FF32E9E7DB
:100E000070B516460C46054600F040F8036893F8A6
:100E10000101012806D0FF2C0FD8185D68B1012010
:100E20002C7070BDD3F807013246214603F2071338
:100E300003442846BDE8704018474FF0FF3070BDAE
:100E4000754600F0EBF8AE4605006946534620F0C3
:100E50000700854618B020B5FFF7FAF9BDE8204035
:100E60004FF000064FF000074FF000084FF0000B66
:100E700021F00701AC46ACE8C009ACE8C009ACE819
:100E8000C009ACE8C0098D467047000010B500F0FD
:100E900005F8001D10BD00BFE525000000487047A3
:100EA000800200202DE9F0411F4604460326016818
:100EB000072A01F4006004DB08B116A505E016A5B9
:100EC00003E008B115A500E015A521F01000206091
:100ED000A069C01EA0610FB1401EA0612046FFF7AF
:100EE000FCFA4FB1D4E9012138469047206A401CF2
:100EF0002062C01C206206E0206AFAE7D4E90121E2
:100F000015F8010B9047761EF8D22046FFF7FBFA42
:100F1000BDE8F0814E414E006E616E00494E4600C4
:100F2000696E66002DE9F047814616468AB035485D
:100F300078440DC88DE80D0032487844801C03AC1D
:100F40000DC884E80D0041F69B300844372190FB22
:100F5000F1F290FBF1F5A5F1800501FB12041B3CB9
:100F600002D56442012000E00020DFF898A080460E
:100F70000027FA44AAF1BE0A0EE0E0070AD0324682
:100F8000684607EB470101230AEB810100F022FBD1
:100F90008DE8070064107F1C002CEED1194F7F44B0
:100FA000AE3F19E0E80715D007EB04100DF1180A61
:100FB00090E80E008AE80E00C068F04201D198194E
:100FC00008903246012306A903A800F003FB03ABF7
:100FD00083E807006D10641C002DE3D14FF001037E
:100FE00032466946B8F1000F03A802D000F0DDFADE
:100FF00001E000F0EFFAC9E90001C9F808200AB0E1
:10100000BDE8F0871039000010B50446AFF300804A
:101010002046BDE81040FFF706B9000000487047C1
:10102000600200204FF0013C50F8042B51F8043BC3
:101030009A4221D1A2EB0C03934313EACC1317D1AC
:1010400050F8042B51F8043B9A4215D1A2EB0C0343
:10105000934313EACC130BD150F8042B51F8043B03
:101060009A4209D1A2EB0C03934313EACC13DBD0D1
:101070004FF00000704700BFD01A01BAB1FA81F1F9
:1010800001F0180122FA01F0CB40C1F12001DBB2DE
:10109000C0B2C01A2CFA01F3D11A914311EAC3115C
:1010A000E6D1704701491820ABBEFEE726000200DA
:1010B00070475FEA400C08BF91F0000F4FEA8C23A5
:1010C0004FEAC12243EA51514FEA1C5018BF00F5C4
:1010D000F0404FEA300018BF41F000415FEA6C5C1D
:1010E00000F02980BCF1FF3F08BF40F0804070470E
:1010F000130C06BF12044FF0100C4FF0000C130E2F
:1011000004BF12020CF1080C130F04BF12010CF102
:10111000040C930F04BF92000CF1020CD30F04BF18
:1011200052000CF1010C11464FF00002A0F11F001B
:10113000A0EB0C00704711F0004F08BF704731F072
:1011400000413FF4D5AF0B0C06BF09044FF0100C63
:101150004FF0000C0B0E04BF09020CF1080C0B0F32
:1011600004BF09010CF1040C8B0F04BF89000CF1C2
:10117000020CCB0F04BF49000CF1010CCCF1200391
:10118000A0EB0C0022FA03F302FA0CF241EA03018D
:1011900000F10100704720F07F4C80EA030023F04B
:1011A0007F47ACEB070303F57C5300F0004003F1ED
:1011B000FF032DE980494FEA154B09B44FEA144368
:1011C00025EA0B4E24EA03480FF2042606EB132708
:1011D00049083E785FEA320203FB0667C7F500075D
:1011E00007FB06F64FEA54374FEAD64606F10206E9
:1011F00007FB066CCCF1005C4FEA1C472CEA074C5D
:1012000007FB06F40CFB06F504EB15464FEA9616B1
:1012100034BF00204FF000404FEAD13706FB07FCF7
:101220004FEA1C4C0CFB0BF7D21B03FB0CF761EBDA
:1012300007010CFB0EF7B0EB074072EB17420CFBFB
:1012400008F734BFA2EB0742B2EB074261EB17414C
:101250004FEA0C444FEA910706FB07FC4FEA1C4C8F
:101260000CFB0BF7B0EBC74072EB573203FB0CF7EC
:1012700034BFA2EBC742B2EBC74261EB57310CFB64
:101280000EF7B0EBC70072EB57720CFB08F734BFD8
:10129000A2EBC702B2EBC70261EB5771039F4FEAA3
:1012A000816141EA921104EBCC044FEAD1374FEA55
:1012B000826206FB07FC42EA90124FEA80604FEA26
:1012C0001C4C0CFB0BF7D21B03FB0CF761EB07016B
:1012D0000CFB0EF7B0EB074072EB17420CFB08F764
:1012E00034BFA2EB0742B2EB074261EB17414FEA72
:1012F0008C554FEA910704EB9C2406FB07FC4FEA50
:101300001C4C0CFB0BF7B0EBC74072EB573203FBE6
:101310000CF734BFA2EBC742B2EBC74261EB5731C7
:101320000CFB0EF7B0EBC70072EB57720CFB08F723
:1013300034BFA2EBC702B2EBC70261EB577115EBEA
:101340004C254FEA816141EA92114FEA82624FEAED
:10135000D13742EA901206FB07FC44F100044FEA41
:1013600080604FEA1C4C0CFB0BF7D21B03FB0CF705
:1013700061EB07010CFB0EF7B0EB074072EB174275
:101380000CFB08F734BFA2EB0742B2EB074261EB5C
:10139000174115EB1C154FEA813141EA92414FEAA2
:1013A000823242EA90424FEA80304FEA0C7644F1B2
:1013B000000448EA03434EEA0B484FF0000EB2EB3C
:1013C000080C71EB030724BF624639464EEB0E0E44
:1013D0004FF0000B0018524149414BEB0B0BB2EBA5
:1013E000080C71EB03077BF1000B24BF6246394602
:1013F0004EEB0E0E4FF0000B0018524149414BEBE3
:101400000B0BB2EB080C71EB03077BF1000B24BF55
:10141000624639464EEB0E0E51EA020718BF46F0FF
:10142000010616EB0E7655F1000254F1000103D5CA
:10143000BDE88901BDE80088BDE88901BDE8004834
:10144000B619524141EB0101A3F1010370478080BD
:101450007F7E7D7C7B7A797877767675747372710E
:1014600071706F6E6E6D6C6C6B6A6A6968686766C6
:1014700066656464636362616160605F5F5E5E5D58
:101480005D5C5C5B5B5A5A595958585757565655CC
:1014900055555454535352525251515050504F4F2E
:1014A0004F4E4E4D4D4D4C4C4C4B4B4B4A4A4A497E
:1014B00049494848484747474746464645454544C1
:1014C0004444444343434342424242414141002B4E
:1014D0009C4630D477002BD01CB54FEA370703B4B5
:1014E0004FF010004FF01001BAF1000F06D0BCF120
:1014F000000FDCBF40F0080040F008014FF0000092
:101500000FBCBDE810400BF1010BBBF1010F08BF90
:101510005FEA170722BF12F1010211F101014FF03A
:10152000004143F1000300F0004043EA000070472F
:10153000F9D35708D0E746EA064613F1400F4FEAC1
:1015400016461FDD13F1200FDFBF16430A460021A8
:1015500020335B42BED0C3F1200746EA064602FABA
:1015600007F74FEA164646EA0706C3F1200722FAB4
:1015700003F201FA07F721FA03F14FF0000342EA00
:101580000702A7E746EA020646EA06464FEA16467B
:1015900046EA0106BCBF46EA0646360C4FF0000399
:1015A0004FF000024FF0000194E72DE9804C9A467D
:1015B000934670B491E8380007C831EA400C48BF40
:1015C00034EA430C03D5FFF7E6FDFFF780FFF0BCDC
:1015D000BDE8008C2DE9804C9A46934670B491E8A2
:1015E000380007C810F0804F08BF13F0804F03D1B8
:1015F00000F005F8FFF76BFFF0BCBDE8008C20F0B1
:101600007F4780EA030023F07F4C07EB0C03A3F530
:101610007C5300F00040A3F1FE0392F0000F00F0B5
:10162000B38095F0000F00F077802DE901494FEA73
:1016300011404FEA144621EA004800FB06FC24EA68
:10164000064708FB06F607FB08F800FB07F718EB50
:1016500006484CEB164C4FEA124B18EB07484FEA82
:1016600015464CEB174022EA0B4E0BFB06FC25EA15
:1016700006470EFB06F607FB0EFE0BFB07F71EEBFD
:10168000064E4CEB164C4FF000061EEB074E4CEB93
:10169000174B18EB0B0840F1000018EB0E0B58EB42
:1016A000000840F100008F1A4FF000013CBFC94311
:1016B000661B14BFB5EB040C00213CBFC943F61BED
:1016C0004FEA17444EEA8E0E27EA04454FEA1C47BC
:1016D00004FB07622CEA074C05FB07F70CFB05F639
:1016E00004FB0CFC16EB074642EB174216EB0C46CC
:1016F00042EB1C421BEB060658EB0202414146EA54
:101700009E0601D5BDE80189B619524141EB0101A0
:10171000A3F10103BDE801894FEA14454FEA1147DF
:1017200024EA054621EA074C05FB07F406FB07F708
:101730000CFB06F105FB0CFC11EB074144EB1744D5
:101740004FEA124711EB0C4144EB1C4422EA074CD0
:1017500005FB07F206FB07F70CFB06F605FB0CFC86
:1017600016EB074642EB174216EB0C4642EB1C45C4
:101770006A1854F1000148BF7047B619524141EB55
:101780000101A3F10103704795F0000F37D04FEA34
:1017900011424FEA144721EA024624EA074C02FBB1
:1017A00007F106FB07F70CFB06F402FB0CFC14EB3D
:1017B000074441EB17414FEA154714EB0C4441EB4A
:1017C0001C4125EA074C02FB07F506FB07F70CFB5B
:1017D00006F602FB0CFC16EB074645EB174516EB2D
:1017E0000C4645EB1C42121951F1000148BF7047ED
:1017F000B619524141EB0101A3F1010370474FEAD1
:1018000014454FEA114724EA054621EA074C05FB37
:1018100007F106FB07F70CFB06F24FF0000605FB8D
:101820000CFC12EB074241EB174112EB0C4251EB5F
:101830001C4148BF7047921841EB0101A3F101031D
:10184000704721B1826842F00102826003E0826841
:1018500022F001028260704710B5044612488442AB
:1018600008D10121401501F0A7FA0021601501F00F
:10187000A3FA17E00D48844208D10121001501F0B8
:101880009BFA0021201501F097FA0BE008488442EA
:1018900008D10121C80301F08FFA00214FF4004064
:1018A00001F08AFA10BD0000002401400028014028
:1018B000003C0140014600208A6802F004020AB19F
:1018C000012000E0002070470146C86C80B27047DC
:1018D0000246002013680B400BB1012000E00020FD
:1018E0007047014600208A6802F008020AB1012010
:1018F00000E000207047000030B5024600200023C1
:1019000050680F4C20400D790C6844EA05242043B0
:10191000506090680B4C2040D1E902542C434D7923
:1019200044EA450420439060D06A20F470000C7CA7
:10193000641EE4B2234340EA0350D06230BD00008D
:10194000FFFEF0FFFDF7F1FFF0B504460D46002065
:101950000021092D11DDE068A5F10A0606EB460716
:10196000072606FA07F18843A5F10A0606EB4606A4
:1019700003FA06F10843E0600CE0206905EB450737
:10198000072606FA07F1884305EB450603FA06F138
:1019900008432061072A0FDA606B561E06EB8607A4
:1019A0001F2606FA07F18843561E06EB860605FA3F
:1019B00006F10843606322E00D2A0FDA206BD61F80
:1019C00006EB86071F2606FA07F18843D61F06EBAB
:1019D000860605FA06F10843206310E0E06AA2F1EA
:1019E0000D0606EB86071F2606FA07F18843A2F1CB
:1019F0000D0606EB860605FA06F10843E062F0BD27
:101A0000816841F008018160704721B1826842F429
:101A1000A002826003E0826822F4A0028260704724
:101A2000816841F0040181607047000000B587B013
:101A300001214FF4017001F0AFF94FF4004001F0C3
:101A40009FF90320ADF8040000208DF8070001A9DC
:101A5000174800F09BFB1748FFF7FEFE002002909E
:101A60008DF80C008DF80D004FF4602004900020DC
:101A7000059001208DF8180002A90E48FFF73CFFE1
:101A800001210C48FFF7DDFE0A48FFF7B9FF00BF50
:101A90000848FFF726FF0028FAD10648FFF7C0FFE5
:101AA00000BF0448FFF706FF0028FAD107B000BDC9
:101AB000000801400024014000BFFEE710B50446C5
:101AC00014B101201C4908701B48007808B31B485A
:101AD000006838B11948001D006818B1174808306F
:101AE0000068B0B90A2000F08FF900201249087090
:101AF0001248006808B9012010BD1048001D006898
:101B000008B90220F8E70D480830006888B90320BA
:101B1000F2E70A48006801280BD10848001D006858
:101B2000012806D1054808300068012801D1024982
:101B300008700020E0E700002C0000201C812142FA
:101B400010B5002400F026F804E0601C84B20120E7
:101B500000F080F90E48006818B142F2107084421B
:101B6000F3DBC82C01DB012010BD002404E0601C65
:101B700084B2012000F06EF90548006808B9F02C25
:101B8000F5DBF02C01DB0120EEE70020ECE70000A4
:101B90003081214208B50121082001F0FDF84FF401
:101BA0008050ADF8000048208DF8030003208DF828
:101BB00002006946014800F0E9FA08BD000C014046
:101BC00008B50121082001F0E7F84FF48050ADF886
:101BD000000010208DF8030003208DF802006946F4
:101BE000014800F0D3FA08BD000C01402DE9F84F80
:101BF00000F0ABF800F060F8FFF7A2FFCC2000F097
:101C0000B1F8BE2000F0AEF800F08EF8834600F088
:101C10008BF80446072C08DDE043C4B26FEA0B00E2
:101C200000F0FF0B4FF0000A01E04FF0010AA1465F
:101C30004FEA09200FFA80F909EB0B000FFA80F93F
:101C4000484602F0C1F8009002F092F807460022E0
:101C5000084B01F099FE054601F026FE0FFA80F9C7
:101C6000BAF1000F02D04846BDE8F88FC9F1000074
:101C700000B2F9E70000E43F08B50121082001F0B7
:101C80008BF84FF48050ADF8000010208DF8030061
:101C900003208DF802006946064800F077FA4FF4F9
:101CA0008051044800F008FB00F006F8FFF748FFF9
:101CB000C0B208BD000C014010B5FFF781FF002045
:101CC000064908604FF42F7000F0C4F80120044961
:101CD000C1F8B0013C2000F0BDF810BDB081214238
:101CE0000080214210B5FFF76BFF00200C4908600F
:101CF000022000F0AFF801200A49C1F8B001FFF757
:101D000049FF0C2000F0A6F805488038006808B1AB
:101D1000012400E00024322000F09CF8204610BD91
:101D2000B08121420080214270B50026012508E0E3
:101D3000FFF7D8FF0446E00140EA6600C6B2681C1F
:101D4000C5B2082DF4DD304670BD10B5FFF7B4FF05
:101D5000FFF7F6FECC2000F005F8442000F002F872
:101D600010BD000070B50446FFF72AFF012520E0F2
:101D700004F0010664106EB100200F4908600220D3
:101D800000F068F801200D49C1F8B0013C2000F0D6
:101D900061F80CE00020084908603C2000F05AF887
:101DA00001200649C1F8B001022000F053F8681C78
:101DB000C5B2082DDCDD70BDB0812142008021421A
:101DC0007047000010B56FF0040001F0E5F80A4814
:101DD00000680A49B0FBF1F009490870084600782C
:101DE00000EB4001C1EBC0104FF6FF7101EAC000EB
:101DF0000449088010BD00001800002000127A007D
:101E00002E000020300000200146114A12884A436B
:101E10004FF0E0235A6100229A611A46126942F09B
:101E200001021A6100BF4FF0E022106900F00102C8
:101E30001AB100F48032002AF5D04FF0E022126986
:101E400022F001024FF0E0231A6100229A617047EC
:101E5000300000200146114A12784A434FF0E02337
:101E60005A6100229A611A46126942F001021A610F
:101E700000BF4FF0E022106900F001021AB100F437
:101E80008032002AF5D04FF0E022126922F00102E0
:101E90004FF0E0231A6100229A6170472E00002063
:101EA00070B58648007806287DD2DFE800F003444C
:101EB0006A92B8DE82A20121084600F051FE84A297
:101EC0000021022000F04CFE834800880A2190FB8C
:101ED000F1F201FB12048048008890FBF1F52346E3
:101EE0002A467EA18048FEF7DFF97F4A06210220BC
:101EF00000F0C0FE7DA20021032000F031FE7D48ED
:101F000002887DA17848FEF7CFF9774A06210320A1
:101F100000F0B0FE7AA20021042000F021FE7A48F1
:101F200002887AA17048FEF7BFF96F4A06210420A3
:101F300000F0A0FEC0E077A20021012000F010FE1A
:101F400078480088052190FBF1F201FB120050B99E
:101F50007548028875A16448FEF7A6F9624A072110
:101F6000022000F087FE6F4800880A2190FBF1F202
:101F700001FB120020B96FA20721022000F07AFEB7
:101F80009AE06EA20021012000F0EAFD6548008879
:101F9000052190FBF1F201FB120060B96B48028849
:101FA00062A1514800E086E0FEF77EF94E4A072123
:101FB000022000F05FFE5B4800880A2190FBF1F2EE
:101FC00001FB120020B95BA20721022000F052FEA3
:101FD00072E05FA20021012000F0C2FD514800889C
:101FE000052190FBF1F201FB120050B95C48028818
:101FF0004EA13D48FEF758F93B4A0721022000F068
:1020000039FE484800880A2190FBF1F201FB1200DA
:1020100020B948A20721022000F02CFE4CE051A27A
:102020000021012000F09CFD3E480088052190FB26
:10203000F1F201FB120050B94E4802883BA12A4838
:10204000FEF732F9284A0721022000F013FE354836
:1020500000880A2190FBF1F201FB120020B935A2A1
:102060000721022000F006FE26E043A20021012005
:1020700000F076FD2B480088052190FBF1F201FB72
:10208000120050B94048028828A11748FEF70CF901
:10209000154A0721022000F0EDFD224800880A21A0
:1020A00090FBF1F201FB120020B922A207210220CD
:1020B00000F0E0FD00E000BF00BF70BD01000020A7
:1020C000CDC1C8C0BBB7BEB3BCE0B2E200000000E7
:1020D000CEC2B6C8A3BA00000E00002025642E258B
:1020E000644320200000000050000020CAAAB6C8A7
:1020F000A3BA000008000020256425252020000048
:10210000B9E2D5D5A3BA00000400002025644C75BF
:1021100078202000C9E8D6C3CEC2B6C8D7EEB4F343
:10212000D6B5000002000020100000202564202009
:10213000000000002020202000000000C9E8D6C3D5
:10214000CEC2B6C8D7EED0A1D6B50000120000208E
:10215000C9E8D6C3CAAAB6C8D7EEB4F3D6B500004C
:102160000A000020C9E8D6C3CAAAB6C8D7EED0A1D3
:10217000D6B500000C000020C9E8D6C3B9E2D5D519
:10218000D7EED0A1D6B50000060000202DE9F04121
:10219000024600250026002000230024002791F895
:1021A00003C00CF00F0591F803C00CF0100CBCF14B
:1021B000000F03D091F802C04CEA050591F800C069
:1021C000BCF1000F31D0146800202BE04FF0010C5F
:1021D0000CFA00F3B1F800C00CEA03069E4220D1CD
:1021E00083004FF00F0C0CFA03F7BC4305FA03FC15
:1021F0004CEA040491F803C0BCF1280F06D14FF05B
:10220000010C0CFA00FCC2F814C00AE091F803C0FB
:10221000BCF1480F05D14FF0010C0CFA00FCC2F8DC
:1022200010C0401C0828D1D31460B1F800C0BCF124
:10223000FF0F34DD546800202EE000F1080C4FF051
:10224000010808FA0CF3B1F800C00CEA03069E423C
:1022500021D183004FF00F0C0CFA03F7BC4305FAB1
:1022600003FC4CEA040491F803C0BCF1280F05D12B
:1022700000F1080C08FA0CF8C2F8148091F803C0B9
:10228000BCF1480F07D100F1080C4FF0010808FA23
:102290000CF8C2F81080401C0828CED35460BDE86A
:1022A000F0810246002093680B400BB1012000E052
:1022B00000207047416170470161704710B50446C6
:1022C0000723012221460C48FFF73EFB0723022289
:1022D00021460948FFF738FB01210748FFF795FB26
:1022E00000BF02210448FFF7F3FA0028F9D00248A2
:1022F000FFF7EAFA10BD0000002401402DE9F0418B
:1023000007460C460025002608E03846FFF7D6FFB2
:1023100005440520FFF778FD701CC6B2A642F4DB29
:10232000B5FBF4F080B2BDE8F081000008B50121F2
:102330001C2000F031FD4FF40050ADF800001020DB
:102340008DF8030003208DF8020069463648FFF738
:102350001DFF4FF400513448FFF7AEFF0120ADF8E8
:10236000000010208DF8030003208DF8020069465C
:102370002E48FFF70BFF01212C48FFF79DFF02209D
:10238000ADF8000010208DF8030003208DF8020046
:1023900069462648FFF7FAFE02212448FFF78AFF24
:1023A0001020ADF800008DF8030003208DF8020026
:1023B00069461F48FFF7EAFE10211D48FFF77AFF24
:1023C0002020ADF8000010208DF8030003208DF8C8
:1023D000020069461648FFF7D9FE20211448FFF78E
:1023E00069FF4020ADF8000010208DF803000320A5
:1023F0008DF8020069460E48FFF7C8FE40210C48E0
:10240000FFF758FF8020ADF8000010208DF8030082
:1024100003208DF8020069460548FFF7B7FE8021CA
:102420000348FFF747FF08BD00100140000C0140C2
:102430000008014000BFFEE708B50121082000F0B8
:10244000ABFC8020ADF8000048208DF80300694601
:102450001748FFF79BFE80211548FFF72DFF01214C
:10246000082000F099FC4FF48070ADF8000048207F
:102470008DF8030069460E48FFF788FE4FF480711F
:102480000B48FFF719FF0121082000F085FC4FF4ED
:102490000070ADF8000048208DF80300694604483C
:1024A000FFF774FE4FF400710148FFF705FF08BD08
:1024B000000C014010B50020FFF700FB54490870E4
:1024C00008460078002870D008460078012804D01B
:1024D000022810D0032869D151E04E480078401CF2
:1024E0004C49087008460078062801DB0020087077
:1024F00000F052FA8AE04748007806283CD2DFE82C
:1025000000F03B030D1A243143480088632804DAA5
:1025100041480088401C404908802EE03E48008821
:10252000401E3E490988884204DD3C480088401C22
:102530003A49088021E03A480088632804DA38489C
:102540000088401C3649088017E035480088401E46
:1025500034490988884204DD32480088401C3149EA
:1025600008800AE030480088632804DA2E48008892
:10257000401C2D49088000E000BF00BF46E0254810
:10258000007806283ED2DFE800F03D03121C293314
:102590002148018821480088401C814204DD1E48F2
:1025A0000088401E1C4908802DE030E02DE01B48CB
:1025B0000088002804DD19480088401E174908805B
:1025C00021E01748018817480088401C814204DD3B
:1025D00013480088401E1249088014E01148008802
:1025E000002804DD0F480088401E0E4908800AE0DC
:1025F0000D480088002804DD0B480088401E0A4969
:10260000088000E000BF00BF00E000BF00BF10BDB9
:102610000000002001000020100000201200002017
:102620000A0000200C00002006000020514800781D
:1026300000287DD15048008800EB80004F49098870
:10264000B1EB400F0CDA01204D49087000204D49D4
:1026500008704D49086001204C49C1F894011FE001
:102660004B48008800EB800044490988B1EB400FDB
:102670000CDD00204249087001204249087042499F
:10268000086000204149C1F8940109E000203C495C
:1026900008703C4908703C4908603C49C1F8940105
:1026A0003C4800883C490988884206DA01203B49B9
:1026B00008703549083108600FE03648008838490D
:1026C0000988884206DD0020344908702E49083107
:1026D000086002E000203149087032480088324921
:1026E0000988884204DA012027490C31086003E098
:1026F000002025490C31086021480078012807D0C6
:1027000020480078012803D024480078012816D1F9
:1027100026480088032190FBF1F201FB120038BB30
:1027200023480068C0432349C1F88001084600E0FF
:102730000DE0D0F88401C043C1F8840118E0012005
:102740001B49086000201B49C1F8840110E00120EA
:102750001749086000201749C1F884010A49086038
:10276000094908310860091F08600849C1F89C013F
:102770007047000001000020120000200E00002021
:102780001400002015000020900121420000214289
:1027900010000020080000200C000020160000207F
:1027A0000A00002004000020060000200200002093
:1027B000808121420080214200BFFEE72DE9FF5FBA
:1027C0003D480078002875D13C480088052190FBE1
:1027D000F1F201FB1200002847D1FFF707FA384950
:1027E000088003210020FFF789FD019001F0B9F86E
:1027F0004FF06632334BCDE9020101F0C5F8804657
:102800000022314B00F0F8FE064600222F4B01F06B
:10281000BBF8044600222E4B01F0B4F9824601F0C9
:1028200073F82C49088003210120FFF767FD019010
:1028300001F097F84FF06632224BCDE9020101F02A
:10284000A3F806460022204B00F0D6FE04460022E4
:102850001E4B01F099F8804600221D4B01F092F9C1
:10286000824601F051F81C490880144800881E2156
:1028700090FBF1F201FB1200E0B9114800880A2137
:1028800090FBF1F201FB12040D48008890FBF1F57A
:1028900023462A4611A1154800F04CFD0E48028837
:1028A00013A1124800F046FD0A48028814A10F48FF
:1028B00000F040FDBDE8FF9F010000200200002065
:1028C0000E00002066660A400000B04000003E4056
:1028D00000C058400400002008000020CEC2B6C846
:1028E000A3BA25642E2564430D0A00000038014078
:1028F000CAAAB6C8A3BA256425250D0A000000009F
:10290000B9E2D5D5A3BA25644C75780D0A0000004C
:102910007047000070B5002100230F22C47804B373
:10292000154C246804F4E064C4F5E064210AC1F1A4
:102930000403CA40447804FA03F184781440214324
:1029400009010E4C0678A155047804F01F050124F6
:10295000AC4005786D11AD0005F1E025C5F80041EA
:1029600009E0047804F01F050124AC40044D06780A
:10297000761145F8264070BD0CED00E000E400E063
:1029800080E100E002490143024A11607047000003
:102990000000FA050CED00E070B5002415E004F12C
:1029A000B001C8B200F0CAF9012000F0C7F9102048
:1029B00000F0C4F9002504E0002000F0CFF9681C05
:1029C000C5B2802DF8DB601CC4B2082CE7DB70BDFB
:1029D00000BF011EA0F10100FBD1704700B501202E
:1029E0000B4908601420FFF7F3FF01200949C1F8E3
:1029F00098011420FFF7ECFF00200549091D08602D
:102A00001420FFF7E5FF00200249C1F8940100BD42
:102A1000948121420080214200B5002007490860CE
:102A20001420FFF7D5FF01200549C1F894011420B7
:102A3000FFF7CEFF01200149086000BD98812142C7
:102A40000080214208B50121082000F0A5F90121EC
:102A5000082000F0A1F92020ADF8000010208DF82A
:102A6000030003208DF8020069463248FFF78EFB11
:102A70004020ADF8000010208DF8030003208DF8F1
:102A8000020069462B48FFF781FBAE2000F056F9A3
:102A9000202000F053F9102000F050F9B02000F091
:102AA0004DF9C82000F04AF9022000F047F9102043
:102AB00000F044F9402000F041F9812000F03EF997
:102AC0007F2000F03BF9A12000F038F9A62000F0AB
:102AD00035F9A82000F032F93F2000F02FF9A420AA
:102AE00000F02CF9D32000F029F9002000F026F99D
:102AF000D52000F023F9F02000F020F9D92000F0D3
:102B00001DF9222000F01AF9DA2000F017F912203E
:102B100000F014F9DB2000F011F9202000F00EF98C
:102B20008D2000F00BF9142000F008F9AF2000F020
:102B300005F908BD000C014070B505460C4605F1CD
:102B4000B001C8B200F0FAF8102141EA141000F008
:102B5000F5F804F00F0141F0010000F0EFF870BD4E
:102B60002DE9F041074688461646781E4006070EB6
:102B70004FEA08704FEA106846E000253CE005EB9C
:102B80000510244911F810003178884232D105EB44
:102B90000510204901EB400040787178884229D126
:102BA00041463846FFF7C8FF00240AE005EB05114F
:102BB000184A02EB4101891C085D00F0CFF8601C47
:102BC000C4B2102CF2DB791CC8B24146FFF7B4FF47
:102BD00000240CE005EB05110E4A02EB4101891CB3
:102BE00004F11002885C00F0B9F8601CC4B2102C2B
:102BF000F0DB03E0681CC5B2192DC0DB00BFB61CBA
:102C000008F1100000F0FF0830780028B5D1BDE8C9
:102C1000F0810000784400082DE9F041064688461E
:102C2000174600250024A7F1200541463046FFF74E
:102C300083FF00BF06E004EB05110D4A505C00F075
:102C40008DF8641C082CF6D3711CC8B24146FFF7FE
:102C500073FF002407E004EB05110831044A505CBF
:102C600000F07CF8641C082CF5D3BDE8F08100006E
:102C7000883E00082DE9F04105460C46164600271F
:102C8000681E4006050EE006040E0DE0F25D2146CA
:102C90002846FFF7C1FF04F10800C4B2782C02DD1A
:102CA0000024A81CC5B27F1CF05D0028EED1BDE851
:102CB000F081000070B5044600251EE004F080009D
:102CC00018B101201A49086002E000201849086084
:102CD0001420FFF77DFE01201549091F086014200C
:102CE000FFF776FE00201349C1F894011420FFF786
:102CF0006FFE6006040E681CC5B2082DDEDB0120E5
:102D00000B4908601420FFF763FE01200949C1F850
:102D100094011420FFF75CFE20210748FFF7C1FA59
:102D2000064600200249091F0860304670BD0000B9
:102D30009881214200802142000C014010B50446D8
:102D4000FFF74CFE7820FFF7B5FF0020FFF7B2FF3A
:102D50002046FFF7AFFFFFF75FFE10BD10B504463A
:102D6000FFF73CFE7820FFF7A5FF4020FFF7A2FF0A
:102D70002046FFF79FFFFFF74FFE10BD7047000092
:102D800001460020034A506820F440400843506048
:102D9000704700000010024029B1064A92690243C0
:102DA000044B9A6104E0034A92698243014B9A61A1
:102DB000704700000010024029B1064AD268024361
:102DC000044BDA6004E0034AD2688243014BDA60C4
:102DD000704700000010024030B50021002200249E
:102DE00000232D4D6D6805F00C0121B1042905D09B
:102DF000082923D105E0294D056022E0274D056013
:102E00001FE0254D6D6805F47012234D6D6805F4C3
:102E10008034022505EB92421CB9214D55430560D3
:102E20000BE01D4D6D6805F400351DB11C4D55437B
:102E3000056002E0194D5543056002E0174D05603D
:102E400000BF00BF144D6D6805F0F0010909154D74
:102E50006B5C0568DD4045600F4D6D6805F4E06111
:102E6000090A104D6B5C4568DD4085600A4D6D6850
:102E700005F46051C90A0B4D6B5C4568DD40C560C7
:102E8000054D6D6805F44041890B074D6B5CC568C5
:102E9000B5FBF3F5056130BD0010024000127A0069
:102EA00000093D003A0000204A000020704710B59C
:102EB00000F002F810BD00000CB500200190009059
:102EC0003348006840F480303149086000BF304822
:102ED000006800F4003000900198401C01900098B8
:102EE00018B90198B0F5A06FF1D12948006800F435
:102EF000003010B10120009001E000200090009807
:102F0000012843D12348006840F01000214908609F
:102F10000846006820F0030008600846006840F09A
:102F2000020008601A48406819494860084640682D
:102F300048600846406840F4806048600846406841
:102F400020F47C1048600846406840F4E81048606F
:102F50000846006840F08070086000BF0C480068B8
:102F600000F000700028F9D00948406820F0030004
:102F7000074948600846406840F00200486000BFCA
:102F80000348406800F00C000828F9D10CBD00008F
:102F90000010024000200240042808D14FF0E02138
:102FA000096941F004014FF0E022116107E04FF0A0
:102FB000E021096921F004014FF0E022116170471E
:102FC0007047000010B51348006840F00100114937
:102FD000086008464068104908400E4948600846A5
:102FE00000680E4908400B4908600846006820F454
:102FF000802008600846406820F4FE0048604FF4D6
:103000001F008860FFF753FF4FF00060044908601D
:1030100010BD0000001002400000FFF8FFFFF6FEA8
:1030200008ED00E010B540F225510E4800F068F8B8
:10303000B0B10D480088FF2802D900200A49088055
:103040000848001D0088C1B2074802880088401C5B
:10305000054B1880054881542021024800F02EF8C5
:1030600010BD000000380140320000206000002048
:1030700010B540F225510E4800F042F8B0B10D48AD
:103080000088FF2802D900200A4908800848001D4E
:103090000088C1B2074802880088401C054B188090
:1030A000054881542021024800F008F810BD0000B6
:1030B00000440040360000206001002001F400724E
:1030C000B2F5007F00D100BFCA430280704721B132
:1030D000828942F40052828104E082894DF6FF73B6
:1030E0001A408281704702460020B1F5007F00D16E
:1030F00000BF13880B400BB1012000E00020704797
:1031000070B50246002400230025002040F66A1610
:10311000B14200D100BFC1F3421501F01F030126E7
:1031200006FA03F3012D02D19689334006E0022D01
:1031300002D1168A334001E0968A33400C120126F0
:1031400006FA04F41688344013B10CB1012000E0F3
:10315000002070BDF0B503460024002600250020A5
:1031600040F66A17B94200D100BF1846C1F34214B5
:1031700001F01F06012707FA06F5012C01D10C30DA
:1031800004E0022C01D1103000E014301AB10768BD
:103190002F43076002E00768AF430760F0BD0000FF
:1031A0002DE9F04786B005460E460024A24600BF32
:1031B000A1460027B08900B100BF2F462C8A4CF6EB
:1031C000FF700440F08804432C82AC894EF6F31063
:1031D0000440B08831890843718908430443AC81B5
:1031E000AC8A4FF6FF400440B0890443AC8201A88A
:1031F000FFF7F2FD1F48874202D1DDF810A001E081
:10320000DDF80CA0A88900F4004040B10AEBCA0028
:1032100000EB0A1031684900B0FBF1F807E00AEB57
:10322000CA0000EB0A1031688900B0FBF1F8642095
:10323000B8FBF0F004012009642101FB1089A88982
:1032400000F4004040B1322000EBC900B0FBF1F0C7
:1032500000F00700044308E0322000EB091064216D
:10326000B0FBF1F000F00F0004432C8106B0BDE884
:10327000F087000000380140C1F3080282807047E7
:1032800000BFFEE710B586B0044601210420FFF719
:1032900083FD01218803FFF77FFD18208DF81700BB
:1032A0004FF40070ADF8140003208DF8160005A946
:1032B0001E48FEF76BFF04208DF817000002ADF8E2
:1032C000140003208DF8160005A91848FEF75EFFCC
:1032D00025208DF8000001208DF8030000208DF8D6
:1032E000010003208DF802006846FFF713FB0194EC
:1032F0000020ADF810000C20ADF80E000020ADF855
:103300000C00ADF80A00ADF8080001A90848FFF765
:1033100047FF012240F225510548FFF71BFF01211D
:103320000348FFF7D4FE06B010BD000000080140BE
:10333000003801400FB430B5CBB0054601AC50A801
:1033400000904FF4947101A8009B4F9AFCF792FFF4
:10335000002000900BE014F8011B2846FFF78CFFBB
:1033600000BF40212846FFF7BEFE0028F9D0207894
:103370000028F0D14BB030BC5DF814FB490050EA96
:10338000C12018BF04204A0D18BF40F0010040F2D0
:10339000FF72B2EB515F08BF40F00200012808BF86
:1033A0000520704730380A2801D2012070470020DC
:1033B000704700004FF4A060FFF7E4FAFEF702FD4B
:1033C000FEF7B4FFFFF738F8FFF73CFBFFF7E4FA2E
:1033D0004FF41650FFF756FFFEF74EFCFEF726FBA4
:1033E0004FF47A70FEF710FD4FF47A70FEF70CFD83
:1033F00026E0FFF75FF8FFF7E1F9FEF751FDFFF771
:1034000015F910480088401C0E4908800A20FEF774
:10341000FBFC0C4800880A2190FBF1F201FB120032
:1034200028B909480068C0430849C1F8B4010548F3
:10343000008841F28831884202DB0020014908807F
:10344000D7E7000002000020B4012242000022421F
:1034500010B500290AD00878002807D0054878441C
:10346000FDF7E0FD002801D0002010BD024878449F
:1034700010BD00001E1400001614000010B5002935
:103480000AD00878002807D005487844FDF7CAFD1F
:10349000002801D0002010BD0248784410BD000073
:1034A0000E1400000614000010B591EA030F48BF87
:1034B00083F0004300F17A83841A71EB030C05D288
:1034C000121943EB0C03001B61EB0C01DFF824E144
:1034D0004FEA1154A4EB135C1EEA430F18BF9EEA97
:1034E000445F73D023EA0E03DCF1200E21EA04517D
:1034F00043F4801332D322FA0CFE10EB0E0023FAB1
:103500000CFE41EB0E01CCF1200E03FA0EFE10EB87
:103510000E0051F10001B1F5801FCCF1200E32D226
:1035200001EB045112FA0EF2BDE8104058BF70478B
:10353000401C38BF5FEA420218BF7047002814BF22
:1035400020F0010041F100014FEA410313F5001F93
:1035500038BF7047A1F1C04100F00EBB012A43EB18
:103560000302ACF1200CDCF11F0E32BF4FF0000E55
:1035700023FA0CF310EB030041EB0451B4EB115FA1
:10358000D0D0A1EB045101F5801149085FEA300069
:1035900001EB04510ED350F1000038BF12FA0EFEB9
:1035A00008D1BDE81040C9E7401C38BF5FEA4202BD
:1035B000CAD1C3E7BDE810404FEA410313F5001F2D
:1035C00038BF7047A1F1C04100F0D6BA9EEA445F0F
:1035D00008D011EA5E0FBDE8104004BF01F00041C1
:1035E00000207047BDE8104070B500F077FA00BFCA
:1035F00064FBBE3E0000E0FF2DE9C04130B4DFF8BF
:10360000A0C23CEA111418BF3CEA131400F0EC808D
:1036100081EA03051CEA111444EAD57418BF1CEAB8
:10362000131500F0C780A4EB05044FF0004545EAF0
:10363000C12145EAC32341EA505143EA525304F100
:103640007F74994204F500344FEAC0204FEAC22249
:1036500008BF904200F09C804FEA13650FF24016BD
:10366000765D4FEA134506FB05F7C7F1807706FB49
:1036700007F74FEAD737A7FB03687642C8F58038CB
:10368000A7FB06CE38BFA8F1010807FB08E64FF0FC
:10369000000EA6FB028CE6FB03CEDCF1000CCEF1A3
:1036A000004E38BFAEF1010EA6FB0C584FF00007DC
:1036B0004FF00005E6FB0E87A1FB08C6A0FB07CE76
:1036C00016EB0E0645F10005E1FB076515F1E04E2E
:1036D0007EBFA4F580345FEA46066D4116F180078F
:1036E00045F100054FEA17274FEA066647EA0567E6
:1036F000A6F1DE46B6F1805F4FEA15251FD93846A0
:1037000024F0010C05EBC471BCF1FE6F01EB0C1150
:1037100002D8F0BCBDE8008124425CBF01F5801EE8
:103720009EEAC47F02D4F0BCBDE80081244238D4B4
:10373000F0BCA1F1C041BDE8004100F01DBA4FEA64
:10374000D22242EA43524FEAD323A7FB02864FEA32
:10375000D02040EA415007FB03661EEA0E0F4FEAF5
:10376000D12105FB026658BFA6EB0056B6EB00560A
:103770004FEA520E4EEAC37E18EB0E0E56EB530E76
:10378000BDD518EB02085E417F1C55F10005B6E778
:103790004FF480154FF000074FF000064FF000087F
:1037A000ADE7F0BC4FF0000001F1C04101F0004175
:1037B000BDE8008111EA0C1F0CEA131500D00CE0E3
:1037C00013EA0C1F00F025804FF00000F0BC81EAE6
:1037D000030101F00041BDE80081F0BCBDE80041FB
:1037E00081EA030100F0C8B9F0BCBDE8004170B542
:1037F00000F074F9097EFC3E00F007B881EA03018D
:103800004FF0000001F00041704781EA030100F031
:10381000B3B9F0BCBDE800414FF00000214970474A
:10382000FFFDFBF9F7F5F4F2F0EEEDEBE9E8E6E485
:10383000E3E1E0DEDDDBDAD8D7D5D4D3D1D0CFCD0C
:10384000CCCBCAC8C7C6C5C4C2C1C0BFBEBDBCBB45
:10385000BAB9B8B7B6B5B4B3B2B1B0AFAEADACAB40
:10386000AAA9A8A8A7A6A5A4A3A3A2A1A09F9F9E1A
:103870009D9C9C9B9A9999989797969595949393CC
:10388000929191908F8F8E8E8D8C8C8B8B8A898963
:1038900088888787868585848483838282818180E6
:1038A0000000FF070000F87F4FEA41034FEA53533F
:1038B000A3F58063D3F11E03C8BFD3F1210C0CDD47
:1038C0004FF0004242EAC12242EA505232FA03FC6F
:1038D0008CEAE17CACEBE1707047102BC4BF002098
:1038E000704703F5787CBCF1FF3F04D06FF00042D5
:1038F00082EA2100704770B500F0F0F84992248008
:1039000000207047F2E700004FEA1153A3F58063EF
:10391000D3F11E03A8BFD3F1200C08DB4FF0004207
:1039200042EAC12252EA505232FA03F07047094289
:103930000BD4102BC4BF0020704703F5787CBCF17A
:10394000FF3F05D04FF0FF3070474FF00000704749
:1039500070B500F0C3F800BF499224800020704782
:10396000F0E7B0FA80F310FA03F10AD0C3F11D03B7
:1039700003F580634FEA41504FEA035202EBD12135
:1039800070474FF000007047DFF848C170B51CEA7F
:10399000111E1EBF1CEA13159EEA0C0F95EA0C0FB0
:1039A00000F06F8081EA030423EA4C134EEAD47ED0
:1039B00021EA4C1141F4801143F48013AE44A1FB81
:1039C000024CA0FB0365AEF17F7E361955EB0C056A
:1039D000A1FB034C4CF10003A0FB021C16EB0C06F0
:1039E000654153F10003094218BF46F0010613F484
:1039F000007F0BD14FEA03314FEA0530340341EA2F
:103A0000155140EA16506FF003020AE04FEAC32155
:103A10004FEAC520F40241EA555140EA56506FF092
:103A2000020202EB2E4201EB025585EACE710AD06A
:103A30005FEA440C18BF24F0004450F1000041F14B
:103A4000000120EAD47040F2FE7C624500D270BDD5
:103A5000A84214BF4FF080444FF04044002E08BFEE
:103A60000024BEF1806FA8BFA1F1C041BDE8704045
:103A700080F282804FF0000001F1C04101F000416E
:103A800070479EEA0C0F0CEA131518BF95EA0C0F4D
:103A900006D04FF0000081EA030E0EF0004170BD29
:103AA00000F01CF88900013E00F007B800F009B8EA
:103AB0004FEA430C5FEA5C5C08D081EA030100F046
:103AC0005BB84FEA410C5FEA5C5CF6D14FF0000056
:103AD000014970470000FF070000F87F0EF1020E59
:103AE0002EF0030E5EF8046B364205D4012A43EB38
:103AF000030515F5001F12D8012841EB010C1CF538
:103B0000001F0CD80ED14FEAD17C15F5001F0CEB2D
:103B10004C0C0CF1020C08BF4CEBD37C04E04FF0D2
:103B2000080C01E04FEAD37C0CEB4C0526FA05F6B5
:103B300006F00706B6F1040C06D20EEB860CBDE8C3
:103B400070404CF0010C6047DFE80CF0090B0202FA
:103B50004FF000414FF00000A1F5002170BD194663
:103B60001046012851EB010418BFD4F5001484BF9E
:103B7000002001F0004170BD0808A0F500114FEAD7
:103B80003101704791EA030F10B581F000413FF514
:103B900093AC83F0004300F009B8000010B591EA3F
:103BA000030F48BF83F000433FF586AC841A71EBE6
:103BB000030C07D212198CF0004C43EB0C03001BD2
:103BC00061EB0C01DFF8A4E14FEA1154A4EB135CA4
:103BD0001EEA430F18BF9EEA445F00F0B08023EA5C
:103BE0006E03524221EA0451C3EB6E0338BF5B1EE1
:103BF000DCF1200E25D322FA0CFE10EB0E0043FA66
:103C00000CFE41EB0E01CCF1200E03FA0EFE10EB80
:103C10000E0051F10001CCF1200E29D412FA0EF25F
:103C200001EB0451BDE8104058BF7047401C1CBF59
:103C3000B2F1004F704700280CBF491C20F0010072
:103C4000704712EB020E43EB030218BF4FF0010E58
:103C50004EEA4202ACF1200CDCF11E0E54D943FABC
:103C60000CFE10EB0E0051F1FF31CCF11E0ED5D53C
:103C70000EF1010E12FA0EFE404141EB010101EB83
:103C8000445C5FEA5C5C10D910EBDE7001EB045120
:103C900038BFBEF1004FBDE8104018BF7047002884
:103CA0000CBF491C20F00100704730D24FEAD42CE1
:103CB00011F5001124F400641BD0B1FA81F20B3A23
:103CC000A41AA41ED2F12003914030FA03F3194341
:103CD000904001EBCC71002C01EB0451BDE8104089
:103CE000A8BF704701F1C0414FF0000001F0004152
:103CF0007047B0FA80F310FA03F100D110BDE41A56
:103D0000173C4805C90AE4E701EB045110BD49100E
:103D100001EB0451BDE810404FEA300002E04FF0E3
:103D2000000170474A0008BF0042F8D0B2F5001FFA
:103D300028BF704701F000414FF0000070479EEA35
:103D4000445F07D011EA5E0FBDE8104004BF0021B8
:103D500000207047BDE8104070B5FFF7BFFE00BF00
:103D600040DFF63E83F00041104670470000E0FF60
:103D700043004FEAD30C4FEA3C0C43401FBF4007BF
:103D80000CF1605113F0FE4F70471CF0006F03D12F
:103D900000200CF0004170470CF0004343EA5070E3
:103DA00010B540EACC0000F027F800BF00000092F8
:103DB0004FEA0001FFF7E0BE4FF000414FF0000076
:103DC000A1F500217047000010F0004148BF4042BB
:103DD000B0FA80F310FA03F2C3F19D030BD051EA5D
:103DE000C35101EB1220530638BF704700F10100A8
:103DF00008BF20F0010070470EF1020E2EF0030EF6
:103E00005EF8044B244204D44FEA4102B2F17F4FE2
:103E100011D84FEA4003B3F17F4F0CD80ED14FEACF
:103E2000D07CB2F17F4F0CEB4C0C0CF1020C08BFB4
:103E30004CEBD17C04E04FF0080C01E04FEAD17C60
:103E40000CEB4C0324FA03F404F00704B4F1040C63
:103E500006D20EEB840CBDE810404CF0010C60471C
:103E6000DFE80CF0070802024FF00040A0F58000E8
:103E700010BD0846420018BFD2F1807288BF00F022
:103E8000004010BDFCF75ABE00000000000000001A
:103E90000000000000000000000000F8000000002A
:103EA000000000333000000000100C06100C06006B
:103EB000000000000000000040C07840C0784000D2
:103EC000043F04043F040400007088FC0830000034
:103ED000001820FF211E0000F008F000E01800008C
:103EE00000211C031E211E0000F008887000000045
:103EF0001E2123241927211010160E000000000097
:103F00000000000000000000000000E018040200B3
:103F1000000000071820400000020418E000000024
:103F20000040201807000000404080F08040400022
:103F30000202010F01020200000000F00000000078
:103F40000101011F0101010000000000000000004C
:103F500080B07000000000000000000000000000C1
:103F6000000101010101010100000000000000004A
:103F700000303000000000000000000080601804E5
:103F8000006018060100000000E010080810E000C2
:103F9000000F102020100F00001010F8000000008B
:103FA0000020203F202000000070080808887000D2
:103FB0000030282422213000003008888848300052
:103FC0000018202020110E000000C02010F8000072
:103FD00000070424243F240000F80888880808000B
:103FE0000019212020110E0000E010888818000020
:103FF000000F112020110E0000380808C8380800F2
:104000000000003F00000000007088080888700071
:10401000001C222121221C0000E010080810E000F2
:104020000000312222110F00000000C0C00000007B
:1040300000000030300000000000008000000000A0
:104040000000806000000000000080402010080098
:104050000001020408102000404040404040400061
:10406000040404040404040000081020408000003C
:104070000020100804020100007048080808F00041
:104080000000003036010000C030C828E810E00011
:104090000718272423140B000000C038E00000009C
:1040A000203C23020227382008F888888870000006
:1040B000203F202020110E00C030080808083800DA
:1040C000071820202010080008F808080810E00051
:1040D000203F202020100F0008F88888E8081000F2
:1040E000203F20202320180008F88888E8081000C6
:1040F000203F200003000000C030080808380000FE
:1041000007182020221E020008F808000008F808FE
:10411000203F210101213F20000808F80808000085
:104120000020203F2020000000000808F8080800B8
:10413000C08080807F00000008F888C02818080030
:10414000203F20012638200008F808000000000069
:10415000203F20202020300008F8F800F8F8080060
:10416000203F003F003F200008F830C00008F8085A
:10417000203F200007183F00E01008080810E0006A
:104180000F10202020100F0008F808080808F00081
:10419000203F210101010000E01008080810E000A4
:1041A0000F18242438504F0008F888888888700039
:1041B000203F2000030C30200070880808083800D9
:1041C0000038202121221C00180808F808081800CF
:1041D0000000203F2000000008F808000008F80850
:1041E000001F202020201F000878880000C8380801
:1041F000000007380E010000F80800F80008F80079
:10420000033C0700073C0300081868808068180812
:1042100020302C03032C30200838C800C838080090
:104220000000203F2000000010080808C8380800DF
:104230002038262120201800000000FE0202020083
:104240000000007F40404000000C30C00000000033
:10425000000000010638C00000020202FE0000005B
:10426000004040407F000000000004020202040001
:10427000000000000000000000000000000000003E
:104280008080808080808080000202040000000026
:10429000000000000000000000008080808000001E
:1042A0000019242222223F2008F80080800000000C
:1042B000003F112020110E000000008080800000CF
:1042C000000E112020201100000000808088F800DE
:1042D000000E112020103F20000080808080000010
:1042E000001F222222221300008080F08888881874
:1042F0000020203F2020000000008080808080007F
:10430000006B94949493600008F800808080000013
:10431000203F210000203F200080989800000000EE
:104320000020203F2020000000000080989800001E
:1043300000C08080807F000008F80000808080003E
:10434000203F24022D302000000808F80000000063
:104350000020203F2020000080808080808080001E
:10436000203F20003F20003F8080008080800000B0
:10437000203F210000203F2000008080808000003E
:10438000001F202020201F0080800080800000006F
:1043900080FFA12020110E0000000080808080009E
:1043A000000E112020A0FF8080808000808080008F
:1043B00020203F21200001000000808080808000BC
:1043C0000033242424241900008080E08080000031
:1043D0000000001F2020000080800000008080007E
:1043E000001F202020103F208080800000808080DF
:1043F00000010E300806010080800080008080806F
:104400000F300C030C300F00008080008080800093
:104410000020312E0E3120008080800000808080BE
:1044200080818E701806010000808080808080006E
:104430000021302C2221300000000000807C02028C
:1044400000000000003F404000000000FF000000AE
:1044500000000000FF0000000002027C800000005D
:104460000040403F00000000000601010202040479
:104470000000000000000000CEC21060028C0000AE
:10448000FE9292929292FE00000004047E01407E11
:1044900042427E427E42427E4000B6C80000FC247A
:1044A0002424FC252624FC242424040040308F806E
:1044B000844C55252525554C80808000C9E8404016
:1044C00042CC0040A09E8282829EA020200000005C
:1044D000003F908840432C10284641808000D6C37E
:1044E000001715D55557557D555755D5151700004B
:1044F0004040407F555555555555557F40404000EB
:10450000D7EE4040C05F5555D5555555555F404095
:10451000400020603F251515FF904729112D43804D
:104520008000B4F320202020202020FF2020202005
:104530002020200080804020100C0300030C10205D
:1045400040808000D0A1000000E0000000FF0000DB
:10455000002040800000080403000040807F00002D
:10456000000000010E00D6B5008060F80704E4A446
:10457000A4BFA4A4E4040000010000FF40407F4A5F
:104580004A4A4A4A7F404000A3BA000000000000A7
:1045900000000000000000000000000036360000AF
:1045A00000000000000000000000CAD60000242423
:1045B000242424FC222222232200000002020202E0
:1045C0000242827F0202020202020200D7D40000ED
:1045D00000F8888C8A89888888F80000000000002C
:1045E00000FF44444444444444FF00000000B6AF8C
:1045F0004044C4444444401010FF101010F0000028
:10460000103C131014B840300E014080403F0000B1
:10461000C4A31010D0FF9014E4AFA4A4A4AFE4048A
:104620000000040300FF00894B2A1A0E1A2A4B8847
:104630008000CABD101090909090901010FF101044
:1046400011161000002060203F10101000030C1005
:104650002040F800CDC100004040404040FF4040B5
:10466000404040000000404040404040407F4040CB
:10467000404040404000C8C01010FF100082BAEA1D
:10468000BA83BAEABA82000008180F04484A2AFF1F
:104690008A4A1A2F5A8A8800CAAA1060028C00FE21
:1046A000929292929292FE00000004047E0144488D
:1046B000507F40407F5048444000B9E2404042446F
:1046C00058C0407F40C05048464040008080402055
:1046D00018070000003F404040407800D5D500FE5C
:1046E000424242FE0042A29E82A2C2BE0000806FF1
:1046F000080828CF00002FC8080828CF0000BBB743
:10470000048484FC848400040484E41C8404040081
:104710002060201F101004020100FF0000010600AD
:10472000BEB31010FF101020A4ACB5A6B4ACA420EA
:10473000200010301F0888804F3A0A0A7A8A8F803A
:10474000E000BCE000007E0000FF0040300F0414D9
:104750006404000040407E42427E4242427E424229
:104760007E404000B2E21060028C00FE02F202FEC7
:1047700000F800FF000004047E018047300F10277E
:104780000047807F000004000008000000000000D7
:104790000002000100001000000000000000000006
:1047A0003031323334353637383941424344454667
:1047B0004030580030313233343536373839616261
:1047C000636465664030780002400000000000A08D
:1047D0000000000005400000000000C800000000CC
:1047E0000C4000000000409C000000001940000048
:1047F0000020BCBE0000000034400000BFC91B8E7A
:1048000000000004B5400000504BCFD06607E2CF57
:10481000010000006C4100003E8251AADFEEA73487
:1048200001000000D9420000DCB5A0E23A301F9739
:10483000FFFFFFFFB4450000FD25A0C8E9A3C14F5D
:10484000FFFFFFFFFF3F00000000008000000000AE
:10485000FF3F00000000008000000000A8490008A1
:10486000000000205000000028010008F84900085E
:104870005000002070080000440100081C000000E7
:1048800043000000F8FFFFFF0C0000000E000000D6
:104890000F0000002E000000100100004300000087
:1048A000F8FFFFFF00404040404040404040414151
:1048B00041414140404040404040404040404040F5
:1048C000404040404005020202020202020202028F
:1048D000020202020220202020202020202020028C
:1048E000020202020202909090909090101010101C
:1048F00010101010101010101010101010101010B8
:10490000020202020202888888888888080808084B
:104910000808080808080808080808080808080817
:10492000020202024000000000000000000000003F
:104930000000000000000000000000000000000077
:104940000000000000000000000000000000000067
:104950000000000000000000000000000000000057
:104960000000000000000000000000000000000047
:104970000000000000000000000000000000000037
:104980000000000000000000000000000000000027
:104990000000000000000000000000000000000017
:1049A00000000000000000000000000000003200D5
:1049B000000032001400000028000A00000000007F
:1049C00000A24A04000000000000000001020304ED
:1049D00006070809010000000000000000000000B8
:1049E00000000000000001020304010203040607A6
:0849F00008090204060800009A
:04000005080000ED02
:00000001FF
